:100AC8000A3FC0C2C4C6C8CACCCED0D21022AF0614
:100AD8009B1F363DBD07BF3FB7BFA9AFB9B10233B2
:020AE8004E209E
:07000300AE071FEE70FA22A8
:100B5000EF1FAA0670011E4A6013E4FCFDC3ED946A
:0D0B600058EC940250EA0DBD00010C80F02D
:010B6D002265
:1009E200D2D730D721C2807FFF1200037FFF1200CF
:1009F20003D2807F3C120003A2807FC81200037FD3
:070A02009612000380DC22C4
:100A0900E4FDFCEDC313FDC2807F01120003D28017
:100A19007F021200033080034305807F2A120003FE
:060A29000CBC08DFAF0564
:010A2F0022A4
:020AEB00AD0755
:100AED00E4FCC2807F0C120003EDC313FD92807FE6
:0F0AFD0023120003D280E4FF1200030CBC08E3B5
:010B0C0022C6
:1007E0001209E27FCC120AEB7F44120AEB7F207ED3
:1007F00003120B501209E27FCC120AEB7FBE120AE1
:10080000EB120A09AB07120A098F0EEFFEAD03EDDA
:10081000FFE50ED394C8400DEFF4FFEEF4FEEF2495
:1008200001FFE43EFEAD07AC06E4120121E4FBFA51
:100830007920783F12001612015AE50ED394C84071
:0708400006E49FFFE49EFEA9
:01084700228E
:070C5700AE071FEE70FA2248
:100B6E00EF1FAA0670011E4A6013E4FCFDC3ED944C
:0D0B7E0058EC940250EA0DBD00010C80F00F
:010B8B002247
:100A3000D2D730D721C2817FFF120C577FFF120C13
:100A400057D2817F3C120C57A2817FC8120C577F6E
:070A500096120C5780DC2216
:100A5700E4FDFCEDC313FDC2817F01120C57D28167
:100A67007F02120C573081034305807F2A120C57EF
:060A77000CBC08DFAF0516
:010A7D002256
:020B0D00AD0732
:100B0F00E4FCC2817F0C120C57EDC313FD92817F61
:0F0B1F0023120C57D281E4FF120C570CBC08E3D1
:010B2E0022A4
:10084800120A307FCC120B0D7F44120B0D7F207ED5
:1008580003120B6E120A307FCC120B0D7FBE120BE7
:100868000D120A57AB07120A578F0EEFFEAD03EDB4
:10087800FFE50ED394C8400DEFF4FFEEF4FEEF242D
:1008880001FFE43EFEAD07AC06E4120121E4FBFAE9
:100898007920783F12001612015AE50ED394C84009
:0708A80006E49FFFE49EFE41
:0108AF002226
:100BC40075D908E4F5F9F5E975DA42F5FAF5EA7547
:090BD400DB42F5EBF5FBD2DE2259
:05000E008FEA8FFA22C9
:050C65008FEB8FFB2264
:030C6A00120A8FDC
:020C6D00002263
:0C0C19007FFE7E607D3CDDFEDEFADFF633
:010C250022AC
:100A7E007E00CFCDCFCECCCE1201DB74222FF8E686
:010A8E00FF68
:100A8F00E4FEC284EF139286EFC313FFD284D286A3
:040A9F000EBE08EE91
:010AA3002230
:10098C00C2857F06120C6AD285C2857F44120C6A1E
:10099C00D285C2857FC0120A8F120C6DD285C2859A
:0B09AC007F8F120A8F120C6DD2852283
:100BDD00E4FDC285743F2DF8E6FF120A8FE4FF1283
:080BED000A8FD2850DBD0AEA52
:010BF50022DD
:100AA400E4FDC285743F2DF8E6FF120A8F120C6D27
:100AB4007FFF120A8FD2850DBD0AE7120C19120CA2
:040AC40019020BDD2B
:03000B00020C6F75
:030C6F0005323219
:0D0C2600758902E4F58CF58AD2A9D28C22E2
:070C5E00D28AD2AAD2AF2214
:03001300020918C7
:09091800C0E0C0D075D000C000A1
:10092100300029E532C3943F500AE532C394214097
:100931000375210074562521F8A632753200052170
:10094100E521B4210CD2017521008005753200D258
:0109510000A5
:07095200D000D0D0D0E0324C
:100959007E01E4FD7C0174562EF8E6D3940740032A
:10096900430780ECC394085004EFC313FF0E0CBC7B
:1009790009E4744E2DF8A607E4FF0DBD04D6D20292
:02098900C201A9
:01098B002249
:0B0C4C00EF1FAC0670011E4C70F6227A
:1009B7007D14AF051DEF6022D290AF4AAE49120CED
:1009C7004CC3E534954AF553E5339549F552C29042
:0A09D700AF53FE120C4CED70D92254
:0109E10022F3
:100B2F00AD07AC06E4F5C275C78275C5018CC3AFBE
:100B3F00058FC475C65A75C6A50000120C40AFC20A
:010B4F002283
:100B8C00AB07AA0675C78275C5028AC3AF038FC4AB
:0D0B9C008DC275C65A75C6A50000020C403A
:100BA900AD07AC0675C78275C5038CC3AF058FC485
:0B0BB90075C65A75C6A50000020C406E
:0C0C4000E4F5C7F5C5F5C6F5C3F5C42200
:0C0C33007FFE7E607D3CDDFEDEFADFF619
:010C3F002292
:040C0A007F507EC3D6
:0B0C0E00EF1FAC0670011E4C70F622B8
:10023E00E4F591759220120C5E120C26D2B01209C2
:10024E008C120BC47FFF120C6512000E120AA41240
:10025E000C33E4FFFE120B2F8F4DEF75F00AA485C1
:10026E00F049F54AFFAE491207781209B730B003CC
:10027E0020B00375C76030A42630A523C2B512077F
:10028E00E012052E8E088F091208481205C48E0A38
:10029E008F0BD2B5300103120959120431800312AB
:1002AE0008B0D3E5099426E5089402401FD3E5096A
:1002BE009426E508940240147F0112000E120BF6EC
:1002CE001207E012052E8E088F0980E1D3E50994FE
:0A02DE00F4E508940150030203FD4B
:1002E8001207E012052E8E0C8F0DD3E50D9509E54A
:1002F8000C9508406FE4F5550554E554B4010E75A6
:100308004B00754C5F1206ECAF4C12000EE554B46E
:1003180002081206E6AF4C12000EE554B4030E753F
:100328004B00754C5D1206ECAF4C12000EE554B450
:10033800040E754B00754C5C1206ECAF4C12000EA7
:10034800E554B4050E754B00754C5B1206ECAF4CCA
:1003580012000EE55464066003020402F54B754C66
:100368005A0203F6C3E50D9509E50C95084003020A
:1003780004020555E4F554E555B4010E754B0075B6
:100388004C591206ECAF4C12000EE555B4020E752E
:100398004B00754C5A1206ECAF4C12000EE555B4E2
:1003A800030E754B00754C5B1206ECAF4C12000E39
:1003B800E555B4040E754B00754C5C1206ECAF4C59
:1003C80012000EE555B4050E754B00754C5D12060E
:1003D800ECAF4C12000EE555B406081206E6AF4C19
:1003E80012000EE555B40712754B00754C5F1206E6
:0303F800ECAF4C1B
:1003FB0080027FFF12000ED3E50B9490E50A940167
:10040B0040057F64120C65D3E50B94F4E50A940167
:10041B00500302027B7F01120C65120BF6120C3398
:06042B00120BF602027B39
:1008B00020A428C3E54A9410E54994045017C3E5E1
:1008C0004A94ACE5499403400C740A254AF54AE47D
:1008D00012076D8006754904754A1020A521D3E5DD
:1008E0004A94ACE54994034010D3E54A9410E54995
:1008F000940450051207658006754903754AACE4F7
:10090000FFFE120BA9AE49AF4A7C007D0A1201DB43
:08091000AD07E4FFFE020B8CB1
:0A06E600754B00754C5EAF4CAE4B37
:0406F000AB07AA06A4
:1006F4007C007D641201DB8F0E7C007D64AF03AE51
:10070400021201DB7E007F0ACFCDCFCECCCE120108
:10071400DB8F0FAE02AF037C007D0A1201DBC285C2
:100724007FC6120A8FE4FF120A8FD285C2857FC466
:10073400120A8F7422250EF8E6FF120A8FD285C2A0
:10074400857FC2120A8F7422250FF8E6FF120A8FE2
:10075400D285C2857FC0120A8FAF05120A89D2855D
:010764002272
:04052E00AB07AA0667
:100532007C007D641201DB8F0E7C007D64AF03AE14
:10054200021201DB7E007F0ACFCDCFCECCCE1201CC
:10055200DB8F0FAE02AF037C007D0A1201DBC28586
:100562007FD2120A8F7422250EF8E6FF120A8FD26A
:1005720085C2857FD0120A8F7422250FF8E6FF12FA
:100582000A8FD285C2857FCE120A8F7F40120A8FD0
:10059200D285C2857FCC120A8F74222DF8E6FF1213
:1005A2000A8FD285E50F75F00AA4FBAAF0E50E7555
:1005B200F064A42BFFE5F03AFE7C00EF2DFFEC3E49
:0105C200FE3A
:0105C3002215
:0405C400AB07AA06D1
:1005C800C2857C007D641201DB8F0E7FC6120A8F04
:1005D8007422250EF8E6FF120A8FD285C2857C00A8
:1005E8007D64AF03AE021201DB7E007F0ACFCDCF60
:1005F800CECCCE1201DB8F0F7FC4120A8F74222556
:100608000FF8E6FF120A8FD285C2857FC2120A8FC1
:100618007F40120A8FD285C285AE02AF037C007D6F
:100628000A1201DB7FC0120A8F74222DF8E6FF122E
:100638000A8FD285E50F75F00AA4FBAAF0E50E75BE
:10064800F064A42BFFE5F03AFE7C00EF2DFFEC3EB2
:01065800FEA3
:01065900227E
:10043100200203020512E54EC4540FF535E54E5472
:100441000FF536E54FC4540FF537E54F540FF53826
:10045100E550C4540FF539E550540FF53AE551C450
:10046100540FF53BE551540FF53CC2857FD2120A7A
:100471008F7FA9120A8FD285C2857FD0120A8F7F02
:10048100AF120A8FD285C2857FCE120A8F7FAF123B
:100491000A8FD285C2857FCC120A8F7FB9120A8F4B
:1004A100D285C2857FCA120A8FE4FF120A8FD285D4
:1004B100C2857FC8120A8FE4FF120A8FD285E551E7
:1004C100B4EA28C3E54A9410E54994045017C3E5FA
:1004D1004A94ACE5499403400C740A254AF54AE470
:1004E10012076D8006754904754A10E551B4EB2178
:1004F100D3E54A94ACE54994034010D3E54A9410FE
:10050100E549940450051207658006754903754A4B
:10051100ACE4FFFE120BA9AE49AF4A7C007D0A1282
:0D05210001DBAD07E4FFFE120B8CC20222CD
:1007650074F6254AF54A74FF3549F5491209B7AFBC
:030775004AAE4940
:10077800AB07AA06C2857FC6120A8F7C037DE8AF45
:1007880003AE02120A86D285C2857FC4120A8F7C04
:10079800037DE8AF03AE021201DB7F64120A7ED24A
:1007A80085C2857FC2120A8F7C007D64AF03AE02CA
:1007B8001201DB7F0A120A7ED285C2857FC0120A27
:1007C8008FAE02AF037C007D0A1201DB74222DF884
:0807D800E6FF120A8FD2852210
:100BF600C282120C0A120C0AD282120C0A7F507E92
:040C0600C3020C0E0B
:10001600EC4D6011E8497017ED33EC3304600DE4E4
:10002600FCFFFEFD22E933E8330470F80201C61234
:10003600019158046009E4CC248150062850090235
:1000460001D02840030201CDC0E0EB4A7044B980DC
:1000560006D0E0FB0201BCEF4E701CBD8008EBFF32
:10006600EAFEE9FD80EBE98DF0A4FEE5F00200FF73
:10007600E9CDF9EAFEEBFFEF89F0A4FCE5F0CE89C5
:10008600F0A42EFFE435F0CD89F0A42DFEE435F082
:100096008067EF4E7005BD80D780C3EF8BF0A4ACB0
:1000A600F0EE8BF0A42CFCE435F0F8EF8AF0A42CEB
:1000B600E5F038FCE433CB8DF0A42CFCE5F03BF8FE
:1000C600EE8AF0A42CFCE5F038F8E433CF89F0A4EE
:1000D6002CFCE5F038CF3400CE89F0A42FFFE5F0F4
:1000E6003EFEE433C98DF0A42EFEE5F039CD8AF04C
:1000F600A42FFFE5F03EFEE43DFD33D0E0FB5007C4
:100106000BBB000F0201D0EC2CFCEF33FFEE33FEED
:06011600ED33FD0201A81B
:10011C0075F020800E75F010800575F0087D007E5E
:10012C00007F003392D530D503120230EC334010EF
:10013C00EF33FFEE33FEED33FDEC33FCD5F0ED2267
:0E014C00E5F0247EA2D513CC92E7CDCEFF22A3
:10015A00EDD2E7CD33EC3392D524814006E4FFFE9D
:10016A00FDFC22FCE4CFCECDCC24E0501174FF80FC
:10017A00EDC3CC13CCCD13CDCE13CECF13CF047099
:07018A00F030D5DE02023067
:10019100E9D2E7C933E833F892D5EDD2E7CD33ECB4
:0701A10033FC5002B2D5222D
:1001A800EC30E7100FBF000C0EBE00080DBD0004B8
:1001B8000BEB6014A2D5EB13FCED92E7FD2274FF64
:1001C800FCFDFEFF22E480F8A2D574FF13FC7D80BD
:0301D800E480EFD1
:0300000002065A9B
:0C065A00787FE4F6D8FD7581760206A1D9
:1001DB00BC000BBE0029EF8DF084FFADF022E4CC08
:1001EB00F875F008EF2FFFEE33FEEC33FCEE9DECD1
:1001FB00984005FCEE9DFE0FD5F0E9E4CEFD22ED17
:10020B00F8F5F0EE8420D21CFEADF075F008EF2F60
:10021B00FFED33FD4007985006D5F0F222C398FD51
:05022B000FD5F0EA22EE
:0E023000C3E49FFFE49EFEE49DFDE49CFC22DF
:1006660002023EE493A3F8E493A34003F68001F26A
:1006760008DFF48029E493A3F85407240CC8C33395
:10068600C4540F4420C8834004F456800146F6DF64
:10069600E4800B0102040810204080900AC8E47E22
:1006A600019360BCA3FF543F30E509541FFEE49359
:1006B600A360010ECF54C025E060A840B8E493A320
:1006C600FAE493A3F8E493A3C8C582C8CAC583CA4B
:1006D600F0A3C8C582C8CAC583CADFE9DEE780BE03
:010AEA00000B
:00000001FF
